:100000007FC08EC08DC08CC08BC08AC089C088C0A4
:1000100087C086C085C084C083C082C081C080C0C4
:100020007FC03E5149453E00427F400042615149F8
:100030004622414949360C0A497F482F49494931EE
:100040003E49494932017109050336494949362675
:100050004949493E7E0909097E7F494949363E4161
:100060004141227F4141413E7F494949417F090940
:1000700009093E4149493A7F0808087F00417F410C
:10008000003040413F017F08081463007F4040403A
:100090007F020C027F7F020C107F3E4141413E7F78
:1000A000090909063E4151215E7F09192946464941
:1000B00049493101017F01013F4040403F1F20403D
:1000C000201F3F4038403F6314081463070870083E
:1000D000076151494543000060600000005F000077
:1000E00036495522500201510906000050300000E7
:1000F00000000100020003000701000101010200ED
:1001000011241FBECFE5D1E0DEBFCDBF11E0A0E6D8
:10011000B0E001C01D92AD30B107E1F753D228C461
:100120006FCF40E050E091E020E030E061E070E02F
:10013000E92FE82329F1DA01AA0FBB1FFD01E151E4
:10014000FF4FE4911196EE2361F4A151BF4FFD01E1
:10015000A491FB0102C0EE0FFF1FAA95E2F7DF0199
:100160000DC0A151BF4FFD01A491FB0102C0EE0FD4
:10017000FF1FAA95E2F7DF01BA2FAA272A2B3B2BF4
:100180004F5F5F4F4830510511F0990FD1CFC90132
:100190000895C7DF2BB3282B2BBB88B3892B88BBD3
:1001A00008958FEFBEDF2BB3809582238BBB88B37E
:1001B0009095982398BB0895DF93CF930F92CDB776
:1001C000DEB78983EEDF8981E4DF0F90CF91DF9185
:1001D000089587B9369A3699FECF24B135B1932F59
:1001E00080E030E0282B392BC90108951F93CF936D
:1001F000DF931092610010926200109263001092DF
:1002000064001092650010926600109267001092D0
:10021000680010926A001092690040C084E0D9DF43
:100220009C01442737FD4095542F809165009091A3
:100230006600A0916700B0916800820F931FA41F11
:10024000B51F8093650090936600A0936700B093FC
:10025000680086E0BEDF9C0190936C0080936B0089
:10026000C901AA2797FDA095BA2F2091610030916E
:1002700062004091630050916400280F391F4A1FAB
:100280005B1F2093610030936200409363005093A2
:1002900064002196D0936A00C0936900C091690000
:1002A000D0916A00CE31D10508F4B8CF60916500D5
:1002B00070916600809167009091680022EE3FEF98
:1002C0004FEF5FEFDBD280916D0090916E00AA2717
:1002D00097FDA095BA2F280F391F4A1F5B1F2E319B
:1002E00031054105510514F410E001C012E06091A0
:1002F000610070916200809163009091640022EE31
:100300003FEF4FEF5FEFBAD280916F009091700096
:10031000AA2797FDA095BA2F280F391F4A1F5B1FE8
:100320002E313105410551050CF01160812FDF910F
:10033000CF911F910895CF93DF93C82FD0E056DF60
:10034000CD9904C081E0809360000AC0282F30E07E
:10035000C901817090708C179D0789F781E021FF9A
:1003600080E0DF91CF910895FF920F931F93A4E057
:10037000FA2E10E000E881E0DEDF90916000992322
:10038000C1F48111102B80E0D6DF90916000992399
:1003900081F406958111102BFA9411F00695EBCF9C
:1003A00080E8BFDE2BB328272BBB88B3892788BB07
:1003B00001C010E0812F1F910F91FF900895CF92FF
:1003C000DF92EF92FF920F931F93CF93DF93CCDFD7
:1003D000882309F45AC0809371008093F500C6EF1A
:1003E000D0E0C2DF899380916000882309F050C07B
:1003F0008E0120E0C93FD207A1F7F090F500F092FE
:1004000071005091F60040E08091F70090E0842B5D
:10041000952B9093F4008093F3008F2D81508031C1
:1004200098F4EC2E6E018D2D2C2FE9016E01D82E43
:10043000E6019ADF899380916000882349F58E0157
:10044000FE01EE19EF15A8F38FDFF801808390917C
:1004500060009923E9F460E02F2D30E02D5F3F4FDD
:1004600006C04B505F4FFA014081940F6F5F462FDB
:1004700050E024173507ACF79195F801918389175F
:1004800051F42091F80030E008C020E030E005C0D1
:100490002EEF3FEF02C02FEF3FEFC901DF91CF9169
:1004A0001F910F91FF90EF90DF90CF9008958F30C4
:1004B00048F490E09695982F88279795879501970F
:1004C000F1F708958FE996E8A1E081509040A040AF
:1004D000E1F700C000000895BF92CF92DF92EF9243
:1004E000FF920F931F93CF93DF9380E090E022D28F
:1004F0008093F200806860DE8FE996E8A1E0815089
:100500009040A040E1F700C000004BDE8FE996E884
:10051000A1E081509040A040E1F700C00000409170
:10052000F200842F84508D3708F03CC082E790E0C1
:1005300061E070E050E0EFD1B0907400D0907300B3
:10054000D694D6949FE0D92227C0899165E08DD1B9
:100550008D3CA0F4082F10E085E0E82EF12CE00E91
:10056000F11EF801EE5DFF4F849126DE8D2D9FDF99
:100570000F5F1F4F0E151F05A1F706C08D2D97DFCA
:100580008D2D95DF8D2D93DF0CDE8D2D90DF8D2D44
:100590008EDFC394CB14C8F2CD9B07C0C5E7D0E073
:1005A000CC24F8CF20E030E002C021E030E0C901E7
:1005B000DF91CF911F910F91FF90EF90DF90CF903F
:1005C000BF900895AF92BF92DF92EF92FF920F9388
:1005D0001F93CF93DF9380E090E021E030E0AC0107
:1005E000440F551FFA01E151FF4FE4914F5F5F4FF8
:1005F000EE2371F46AB341515F4FFA0144915901FE
:1006000002C0AA0CBB1C4A95E2F76A296ABB0DC05E
:1006100067B341515F4FFA014491590102C0AA0CDE
:10062000BB1C4A95E2F76A2967BB019688309105A1
:10063000B1F6DD9A379A87E087B9B3DD87EA91E6AC
:100640000197F1F700C000008FEFA3DDA7EAB1E644
:100650001197F1F700C00000A4DDC0E0D0E001E098
:1006600010E0E7EAF1E63197F1F700C00000C801B9
:100670000C2E02C0880F991F0A94E2F78ADD21969A
:10068000C830D10571F787EA91E60197F1F700C00C
:10069000000087DD21DF81E0809360009EE1E92E8C
:1006A000F12C012D112DC9EFD0E0CD9B05C080911B
:1006B0006000882309F49EC080E87EDD109261000E
:1006C0001092620010926300109264001092650014
:1006D00010926600109267001092680010926A00F3
:1006E000109269004AC084E074DD9C01442737FD04
:1006F0004095542F8091650090916600A09167000D
:10070000B0916800820F931FA41FB51F80936500EE
:1007100090936600A0936700B093680086E059DD6F
:100720009C0190936C0080936B00C901AA2797FDF0
:10073000A095BA2F20916100309162004091630032
:1007400050916400280F391F4A1F5B1F20936100DE
:10075000309362004093630050936400A9EFB0E0CF
:100760001197F1F700C000008091690090916A0034
:10077000019690936A00809369008091690090913E
:100780006A008E31910508F4AECF609165007091DA
:1007900066008091670090916800A80197016ED073
:1007A00030936E0020936D00609161007091620043
:1007B0008091630090916400A80197015FD030930D
:1007C000700020936F00CD9BFECF8FE39DE0A3E0F0
:1007D00081509040A040E1F700C00000E2DC1092A0
:1007E00060001092710082E790E06BEA70E040E8F0
:1007F00050E08AD01092F20032C0E1DD90916000AA
:10080000992389F5882381F46091F200662359F1D8
:1008100080E090E09FD04091F20082E790E061E0BC
:1008200070E050E08FD01FC08630C9F42091F300F3
:100830003091F4004091F5002038310580F4D42E39
:10084000D20ED7FC0CC02E583F4FC901BE0150E05C
:1008500052D08091F2008D1510F4D092F200809168
:100860006000882351F238DE20CF002480FD060E80
:10087000660F11F08695D1F7802D089597FB092E0C
:1008800005260ED057FD04D014D00AD0001C38F431
:1008900050954095309521953F4F4F4F5F4F0895AC
:1008A000F6F790958095709561957F4F8F4F9F4F8C
:1008B0000895A1E21A2EAA1BBB1BFD010DC0AA1FA1
:1008C000BB1FEE1FFF1FA217B307E407F50720F0B9
:1008D000A21BB30BE40BF50B661F771F881F991F34
:1008E0001A9469F760957095809590959B01AC017D
:1008F000BD01CF010895FB01DC0102C001900D9202
:1009000041505040D8F70895DC0101C06D9341502B
:100910005040E0F70895DC01862FE82FE199FECFE3
:100920001FBA05C0EEBBE09AE3950DB20D9241509F
:10093000C8F70895E199FECF1FBA8EBBE09A9927B8
:100940008DB30895DC01862F02C02D9104D0415053
:10095000E0F70895262FE199FECF1CBA1FBA8EBB8F
:100960002DBB0FB6F894E29AE19A0FBE0196089556
:04097000F894FFCF29
:00000001FF
